{
  "_format": "hh-sol-artifact-1",
  "contractName": "Test",
  "sourceName": "contracts/Test.sol",
  "abi": [
    {
      "inputs": [],
      "stateMutability": "nonpayable",
      "type": "constructor"
    },
    {
      "inputs": [],
      "name": "getValue",
      "outputs": [
        {
          "internalType": "uint256",
          "name": "",
          "type": "uint256"
        }
      ],
      "stateMutability": "view",
      "type": "function"
    },
    {
      "inputs": [],
      "name": "owner",
      "outputs": [
        {
          "internalType": "address",
          "name": "",
          "type": "address"
        }
      ],
      "stateMutability": "view",
      "type": "function"
    },
    {
      "inputs": [
        {
          "internalType": "uint256",
          "name": "_value",
          "type": "uint256"
        }
      ],
      "name": "setValue",
      "outputs": [],
      "stateMutability": "nonpayable",
      "type": "function"
    },
    {
      "inputs": [],
      "name": "value",
      "outputs": [
        {
          "internalType": "uint256",
          "name": "",
          "type": "uint256"
        }
      ],
      "stateMutability": "view",
      "type": "function"
    }
  ],
  "bytecode": "0x608060405234801561001057600080fd5b50600160008190555033600160006101000a81548173ffffffffffffffffffffffffffffffffffffffff021916908373ffffffffffffffffffffffffffffffffffffffff16021790555061022a806100696000396000f3fe608060405234801561001057600080fd5b506004361061004c5760003560e01c806320965255146100515780633fa4f2451461006f578063552410771461008d5780638da5cb5b146100a9575b600080fd5b6100596100c7565b604051610066919061011f565b60405180910390f35b6100776100d0565b604051610084919061011f565b60405180910390f35b6100a760048036038101906100a2919061016b565b6100d6565b005b6100b16100e0565b6040516100be91906101d9565b60405180910390f35b60008054905090565b60005481565b8060008190555050565b600160009054906101000a900473ffffffffffffffffffffffffffffffffffffffff1681565b6000819050919050565b61011981610106565b82525050565b60006020820190506101346000830184610110565b92915050565b600080fd5b61014881610106565b811461015357600080fd5b50565b6000813590506101658161013f565b92915050565b6000602082840312156101815761018061013a565b5b600061018f84828501610156565b91505092915050565b600073ffffffffffffffffffffffffffffffffffffffff82169050919050565b60006101c382610198565b9050919050565b6101d3816101b8565b82525050565b60006020820190506101ee60008301846101ca565b9291505056fea264697066735822122006095775dd86fc986c378958f61e9667f869cc4fcfd7f006c7906e202116554264736f6c63430008090033",
  "linkReferences": {},
  "deployedLinkReferences": {}
}